:100000001CC02BC02AC029C028C027C026C025C0BC
:1000100024C023C022C021C020C01FC01EC01DC0DC
:100020001CC01BC01AC022C023C025C027C029C0C5
:100030002BC02DC02FC031C033C011241FBECFE54F
:10004000D4E0DEBFCDBF20E0A0E6B0E001C01D924D
:10005000AB36B207E1F7A2D05AC1D2CF90E08A30D6
:10006000910500F5FC01ED5EFF4F099412BA089569
:1000700081E082BB089582E082BB089583E082BB69
:10008000089584E082BB089585E082BB089586E0F0
:1000900082BB089587E082BB089588E082BB089503
:1000A00089E082BB08958EB588608EBD89B7806176
:1000B00089BF8AE78BBD82E18ABD8EB581608EBD26
:1000C00008954F925F926F927F928F929F92AF921C
:1000D000BF92CF92DF92EF92FF926B017C01F89476
:1000E0000F2EFAE04F2E512C612C712CF02DA30114
:1000F0009201EBD0609366000F2EF4E68F2E912CC8
:10010000A12CB12CF02DC701B601A5019401DDD0C1
:10011000A3019201DAD0209365000F2EF8EE4F2E46
:10012000F3E05F2E612C712CF02DC701B601A30105
:100130009201CBD0A5019401C8D0209364000F2E6A
:10014000F0E18F2EF7E29F2EA12CB12CF02DC701EC
:10015000B601A5019401B9D0A3019201B6D02093B4
:100160006300C701B60120EA36E841E050E0ADD0B7
:10017000F22EA5019401A9D020936200F0926100B3
:100180007894FF90EF90DF90CF90BF90AF909F90CA
:100190008F907F906F905F904F90089584DF8FEFE6
:1001A00081BB8FE087BB9FE194BB12BA88BB85BB44
:1001B0007894109267001092680010926900109273
:1001C0006A0060E070E0CB017CDF2FEF89E698E108
:1001D000215080409040E1F700C000008091600015
:1001E000811109C0A898A998AA98AB98C098C19AFB
:1001F0008091660033DF80916000813049F4A898D7
:10020000A998AA98AB98C198C09A8091650026DFFA
:1002100080916000823049F4A898A998AA98C09863
:10022000C198AB9A8091640019DF8091600083309F
:1002300049F4A898A998AB98C098C198AA9A8091B7
:1002400063000CDF80916000843049F4A898AA987C
:10025000AB98C098C198A99A80916200FFDE809106
:100260006000853049F4A998AA98AB98C098C198C5
:10027000A89A80916100F2DE809160008F5F8630E5
:1002800018F48093600002C01092600080916700B3
:1002900090916800A0916900B0916A00BC01CD0105
:1002A0006F5F7F4F8F4F9F4F609367007093680021
:1002B0008093690090936A00603A26E8720721E013
:1002C0008207910508F480CF74CFA1E21A2EAA1BF1
:1002D000BB1BFD010DC0AA1FBB1FEE1FFF1FA217F6
:1002E000B307E407F50720F0A21BB30BE40BF50BF3
:1002F000661F771F881F991F1A9469F7609570957C
:10030000809590959B01AC01BD01CF010895F894B3
:02031000FFCF1D
:00000001FF
