S017000074696D657220696E64696B61746F722E7372656307
S11300001CC02BC02AC029C028C027C05AC025C084
S113001024C023C022C021C020C01FC01EC01DC0D8
S11300201CC01BC01AC022C023C025C027C029C0C1
S11300302BC02DC02FC031C033C011241FBECFE54B
S1130040D4E0DEBFCDBF20E0A0E6B0E001C01D9249
S1130050A636B207E1F7F9D044C1D2CF90E08A3096
S1130060910500F5FC01ED5EFF4F099412BA089565
S113007081E082BB089582E082BB089583E082BB65
S1130080089584E082BB089585E082BB089586E0EC
S113009082BB089587E082BB089588E082BB0895FF
S11300A089E082BB08958EB588608EBD89B7806172
S11300B089BF8FE08BBD82E48ABD8EB581608EBD21
S11300C008951F920F920FB60F9211240F931F934E
S11300D02F933F934F935F936F937F938F939F934C
S11300E0AF93BF93CF93DF93EF93FF93D1E0C0E03F
S11300F001E010E002C0CF5FDF5F48B38C2F90E0D7
S113010098010C2E02C0220F331F0A94E2F7242B0D
S113011028BB28B3CC2351F02E7F28BBFC01E05A26
S1130120FF4F80819BDFD93030F308C02D7F28BB7F
S1130130FC01E05AFF4F808191DFDDCFFF91EF9109
S1130140DF91CF91BF91AF919F918F917F916F91EB
S11301505F914F913F912F911F910F910F900FBE7F
S11301600F901F901895CF93DF93AC01E0E6F0E079
S11301709C01ADECBCECA9D0969587959695879596
S1130180969587959C01220F331F880F991F880F1E
S1130190991F880F991F820F931F9A01281B390BEF
S11301A020839A013695279536952795ABE7B4E1D8
S11301B08CD09695879564E6689F9001699F300D71
S11301C01124CA01821B930B9C01ADECBCEC7DD0C5
S11301D09695879596958795969587958183EA0157
S11301E0D695C795D695C795D695C7959E01A5EC86
S11301F0B0E26BD0929582958F7089279F70892782
S113020068EE73E0869F9001879F300D969F300DB6
S11302101124CA01821B930B9C01369527953695B0
S11302202795ABE7B4E151D09695879582839E01DB
S1130230A5ECB0E24AD0929582958F7089279F7081
S113024089278383DF91CF9108952DDF8FEF81BBC1
S11302508FE087BB8FE984BB12BA8FE488BB8FE140
S113026085BB10926500109264007894C0E01092EF
S1130270650010926400B69909C0C53010F4CF5FD0
S1130280FACF109265001092640004C0CC2311F0E0
S1130290C150F1CF809164009091650064DF2FE339
S11302A08DE093E0215080409040E1F700C00000D1
S11302B0809164009091650001969093650080930D
S11302C0640080319742B8F2D2CFA29FB001B39FAD
S11302D0C001A39F01D0B29F700D811D1124911DF7
S10902E00895F894FFCF1D
S9030000FC
