:1000000012C021C020C01FC01EC01DC01CC01BC00C
:100010001AC019C018C017C016C015C014C013C02C
:1000200012C011C010C011241FBECFE5D4E0DEBF46
:10003000CDBF20E0A0E6B0E001C01D92A136B2071E
:10004000E1F702D083C0DCCF8FEF81BB8FE087BBAD
:100050009FE194BB12BA88BB8FE485BBF89491E012
:1000600062E053E044E035E026E0809160008111D9
:1000700007C0A898A998AA98AB98C098C19A92BBB3
:10008000E7EEF3E03197F1F700C0000080916000E7
:10009000813039F4A898A998AA98AB98C198C09AC9
:1000A00062BBE7EEF3E03197F1F700C0000080910A
:1000B0006000823039F4A898A998AA98C098C1988D
:1000C000AB9A52BBE7EEF3E03197F1F700C00000C6
:1000D00080916000833039F4A898A998AB98C098B3
:1000E000C198AA9A42BBE7EEF3E03197F1F700C05E
:1000F000000080916000843039F4A898AA98AB98E9
:10010000C098C198A99A32BBE7EEF3E03197F1F7B6
:1001100000C0000080916000853039F4A998AA9849
:10012000AB98C098C198A89A22BBE7EEF3E031974C
:10013000F1F700C00000809160008F5F8093600045
:10014000863008F492CF109260008FCFF894FFCFE2
:00000001FF
