:100000001CC02BC02AC029C028C027C09CC125C045
:1000100024C023C022C021C020C01FC01EC01DC0DC
:100020001CC01BC01AC064C165C167C169C16BC176
:100030006DC16FC171C173C175C111241FBECFE500
:10004000D4E0DEBFCDBF20E0A0E6B0E001C01D924D
:10005000AA36B207E1F732D24BC2D2CFA59AAD98F9
:100060008AE18A95F1F700C0A49AAC989AE19A9532
:10007000F1F700C0A598AD9A8AE18A95F1F700C022
:10008000A498AC9A9AE19A95F1F700C09C9902C0A5
:1000900082E001C080E09D9B8F5F9AE19A95F1F725
:1000A00000C09AE19A95F1F700C09AE19A95F1F7AC
:1000B00000C09AE19A95F1F700C00895A49AAC980F
:1000C0008AE18A95F1F700C0A59AAD988AE18A95F0
:1000D000F1F700C00895A498AC9A8AE18A95F1F7E7
:1000E00000C0A598AD9A8AE18A95F1F700C0A49A5C
:1000F000AC988AE18A95F1F700C0A59AAD988AE19B
:100100008A95F1F700C00895A498AC9AA598AD9A85
:10011000A5DF089598E088231CF0A49AAC9802C04B
:10012000A498AC9A2AE12A95F1F700C0A598AD9A57
:100130002AE12A95F1F700C0A59AAD98880F915051
:1001400051F7A498AC9A8AE18A95F1F700C0A59876
:10015000AD9A2AE12A95F1F700C083B3A59AAD982C
:10016000829581700895282FA498AC9A98E080E039
:10017000880FA598AD9A3AE13A95F1F700C09C999D
:100180008160A59AAD983AE13A95F1F700C0915097
:1001900079F7211103C0A49AAC9802C0A498AC9A34
:1001A0009AE19A95F1F700C0A598AD9A3AE13A958F
:1001B000F1F700C0A59AAD989AE19A95F1F700C0C1
:1001C000A498AC9A0895CF939FDF78DF80EDA2DFEB
:1001D0008EE0A0DF80DF81ED9DDF81E0C4DFC82FEE
:1001E0003DDF6CDF80ED96DF8EE094DF74DF8C2FD7
:1001F0008F7790DF33DFCF910895DF92EF92FF92F8
:100200000F931F93CF93DF9300D01F92CDB7DEB72C
:100210008C0154DF80ED7EDF80E07CDF5CDF81EDF0
:1002200079DF80E0A0DFE82E8B8380E09CDFD82E92
:100230008A8381E098DFF82E898310DFF6FE2EC0D6
:10024000F4FA882780F9880F982F990F990F890F52
:100250009F2D9F70890FD8018C938D2D82958F7063
:10026000880F982F990F990F980F8D2D8F70D92E79
:10027000D80E1196DC9211978E2D82958F70880F73
:10028000982F990F990F980F8E2D8F70E92EE80EE9
:100290001296EC92F5FA882780F917C0FE01319684
:1002A000A8014D5F5F4F8191982F92959F70990F94
:1002B000292F220F220F920F8F70890FD8018D9353
:1002C0008D014A175B0779F782E00F900F900F902E
:1002D000DF91CF911F910F91FF90EF90DF900895E4
:1002E00090E08A30910500F5FC01ED5EFF4F099426
:1002F00012BA089581E082BB089582E082BB08951E
:1003000083E082BB089584E082BB089585E082BBD0
:10031000089586E082BB089587E082BB089588E057
:1003200082BB089589E082BB08958EB588608EBD3A
:1003300089B7806189BF8AE78BBD82E18ABD8EB5AE
:1003400081608EBD08951F920F920FB60F921124F7
:100350002F933F934F935F936F937F938F939F93CD
:10036000AF93BF93EF93FF9380916000811109C019
:10037000A898A998AA98AB98C098C19A809169004A
:10038000AFDF80916000813049F4A898A998AA98BD
:10039000AB98C198C09A80916800A2DF80916000FC
:1003A000823049F4A898A998AA98C098C198AB9AA5
:1003B0008091670095DF80916000833049F4A898B0
:1003C000A998AB98C098C198AA9A8091660088DFD6
:1003D00080916000843049F4A898AA98AB98C0989E
:1003E000C198A99A809165007BDF8091600085307B
:1003F00049F4A998AA98AB98C098C198A89A8091F6
:1004000064006EDF809160008F5F863018F4809307
:10041000600002C010926000FF91EF91BF91AF9118
:100420009F918F917F916F915F914F913F912F910C
:100430000F900FBE0F901F901895FC01F8948081CB
:100440009DEC899F212D1124269526952695220F16
:10045000322F330F330F230F821B809365002081CF
:10046000299F212D112426952695269520936400F9
:100470002181299F812D1124869586958695482F67
:10048000440F342F330F330F340F231B2093670097
:10049000809366008281899F912D1124969596956F
:1004A0009695392F330F232F220F220F230F821BF4
:1004B0008093690090936800789408958FE081BBE1
:1004C00093E097BB84BB80E882BB84E088BB15BA0D
:1004D0002CDF88E28A95F1F776DE88E28A95F1F7DB
:1004E000789481E690E089DE81E690E0A6DFF9CF9E
:0404F000F894FFCFAE
:00000001FF
