S017000074696D657220696E64696B61746F722E7372656307
S11300001CC036C035C034C033C032C065C030C037
S11300102FC02EC02DC02CC02BC02AC029C028C080
S113002027C026C025C02DC02EC030C032C034C069
S113003036C038C03AC03CC03EC011241FBECFE514
S1130040D4E0DEBFCDBF10E0A0E6B0E0E6E1F4E02E
S113005002C005900D92A236B107D9F720E0A2E6BE
S1130060B0E001C01D92AA36B207E1F75DD1D1C15B
S1130070C7CF90E08A30910500F5FC01ED5EFF4F9B
S1130080099412BA089581E082BB089582E082BB8C
S1130090089583E082BB089584E082BB089585E0DF
S11300A082BB089586E082BB089587E082BB0895F1
S11300B088E082BB089589E082BB08958EB588608C
S11300C08EBD89B7806189BF8FE08BBD82E48ABD14
S11300D08EB581608EBD08951F920F920FB60F9258
S11300E011242F933F934F935F936F937F938F9339
S11300F09F93AF93BF93EF93FF938091600081111F
S113010016C0A898A998AA98AB98C098C19A80914B
S11301106700AFDF80916000811109C0A898A99899
S1130120AA98AB98C198C09A80916600A2DF80918A
S11301306000813049F4A898A998AA98C098C198F9
S1130140AB9A8091650095DF80916000823049F41C
S1130150A898A998AB98C098C198AA9A809164006D
S113016088DF80916000833049F4A898AA98AB98FE
S1130170C098C198A99A809163007BDF8091600048
S1130180843049F4A998AA98AB98C098C198A89AC1
S1130190809162006EDF809160008F5F863018F47A
S11301A08093600002C010926000FF91EF91BF91B4
S11301B0AF919F918F917F916F915F914F913F91FB
S11301C02F910F900FBE0F901F901895AC019C01BA
S11301D0ADECBCECF0D09695879596958795969561
S11301E087959C01220F331F880F991F880F991F31
S11301F0880F991F820F931F9A01281B390B209394
S113020067009A013695279536952795ABE7B4E1B3
S1130210D2D09695879564E6689F9001699F300DCA
S11302201124CA01821B930B9C01ADECBCECC3D01E
S1130230969587959695879596958795809366006C
S11302409A01369527953695279536952795A5ECE9
S1130250B0E2B1D0929582958F7089279F708927DB
S113026068EE73E0869F9001879F300D969F300D56
S11302701124CA01821B930B9C0136952795369550
S11302802795ABE7B4E197D0969587958093650061
S11302909A01329522952F7023273F702327A7E4D4
S11302A0B3E089D0FC01F695E795F695E795F695C8
S11302B0E79520E137E2E29FC001E39F900DF29FB2
S11302C0900D1124FA01E81BF90B9F01369527952F
S11302D03695279536952795A5ECB0E26CD0929586
S11302E082958F7089279F708927809364009F016E
S11302F0329522952F7023273F702327A7E4B3E07C
S11303005AD09695879596958795969587958093D7
S11303106300BA0180E090E020EA36E841E050E072
S11303202ED0209362000895C9DE8FEF81BB8FE049
S113033087BB9FE194BB12BA88BB85BB109269004E
S1130340109268007894109269001092680080916D
S11303506800909169003ADF2FE38DE093E021502B
S113036080409040E1F700C00000809168009091C7
S1130370690001969093690080936800E8CF052E88
S113038097FB16F400940FD057FD05D020D007FC3E
S113039002D046F408C050954095309521953F4FC2
S11303A04F4F5F4F089590958095709561957F4F5D
S11303B08F4F9F4F0895A29FB001B39FC001A39F89
S11303C001D0B29F700D811D1124911D0895A1E2E9
S11303D01A2EAA1BBB1BFD010DC0AA1FBB1FEE1FBB
S11303E0FF1FA217B307E407F50720F0A21BB30B06
S11303F0E40BF50B661F771F881F991F1A9469F782
S113040060957095809590959B01AC01BD01CF01DD
S10904100895F894FFCFEB
S10504160100DF
S9030000FC
