S017000074696D657220696E64696B61746F722E7372656307
S11300001CC02BC02AC029C028C027C047C125C096
S113001024C023C022C021C020C01FC01EC01DC0D8
S11300201CC01BC01AC0F1C0F4C0F8C0FCC002C19F
S113003006C10CC112C118C11CC111241FBECFE5D9
S1130040D4E0DEBFCDBF20E0A0E6B0E001C01D9249
S1130050A736B207E1F709D242C2D2CFA59AAD982A
S11300608AE18A95F1F700C0A49AAC989AE19A952E
S1130070F1F700C0A598AD9A8AE18A95F1F700C01E
S1130080A498AC9A9AE19A95F1F700C09C9902C0A1
S113009082E001C080E09D9B8F5F9AE19A95F1F721
S11300A000C09AE19A95F1F700C09AE19A95F1F7A8
S11300B000C09AE19A95F1F700C00895A49AAC980B
S11300C08AE18A95F1F700C0A59AAD988AE18A95EC
S11300D0F1F700C00895A498AC9A8AE18A95F1F7E3
S11300E000C0A598AD9A8AE18A95F1F700C0A49A58
S11300F0AC988AE18A95F1F700C0A59AAD988AE197
S11301008A95F1F700C00895A498AC9AA598AD9A81
S1130110A5DF089598E088231CF0A49AAC9802C047
S1130120A498AC9A2AE12A95F1F700C0A598AD9A53
S11301302AE12A95F1F700C0A59AAD98880F91504D
S113014051F7A498AC9A8AE18A95F1F700C0A59872
S1130150AD9A2AE12A95F1F700C083B3A59AAD9828
S1130160829581700895282FA498AC9A98E080E035
S1130170880FA598AD9A3AE13A95F1F700C09C9999
S11301808160A59AAD983AE13A95F1F700C0915093
S113019079F7211103C0A49AAC9802C0A498AC9A30
S11301A09AE19A95F1F700C0A598AD9A3AE13A958B
S11301B0F1F700C0A59AAD989AE19A95F1F700C0BD
S11301C0A498AC9A0895CF939FDF78DF80EDA2DFE7
S11301D08EE0A0DF80DF81ED9DDF81E0C4DFC82FEA
S11301E03DDF6CDF80ED96DF8EE094DF74DF8C2FD3
S11301F08F7790DF33DFCF91089590E08A309105B7
S1130200F0F5FC01ED5EFF4F099488B3807F88BB55
S1130210089588B3807F88BBC09A089588B3807F8F
S113022088BBC19A089588B3807F88BB88B38360F4
S113023088BB089588B3807F88BBC29A089588B329
S1130240807F88BB88B3856088BB089588B3807F2E
S113025088BB88B3866088BB089588B3807F88BBD9
S113026088B3896088BB089588B3807F88BBC39AAC
S1130270089588B3807F88BB88B3896088BB08955C
S11302808EB588608EBD89B7806189BF8AE78BBDD2
S113029082E18ABD8EB581608EBD08951F920F9252
S11302A00FB60F9211242F933F934F935F936F9345
S11302B07F938F939F93AF93BF93EF93FF9380911B
S11302C06000811109C0A898A998AA98AB98C09811
S11302D0C19A8091660091DF80916000813049F479
S11302E0A898A998AA98AB98C198C09A80916500DB
S11302F084DF80916000823049F4A898A998AA9874
S1130300C098C198AB9A8091640077DF80916000B7
S1130310833049F4A898A998AB98C098C198AA9A30
S1130320809163006ADF80916000843049F4A8986A
S1130330AA98AB98C098C198A99A809162005DDF91
S113034080916000853049F4A998AA98AB98C09828
S1130350C198A89A8091610050DF809160008F5FFE
S1130360863018F48093600002C010926000FF9100
S1130370EF91BF91AF919F918F917F916F915F9119
S11303804F913F912F910F900FBE0F901F90189592
S11303904F925F926F927F928F929F92AF92BF9291
S11303A0CF92DF92EF92FF926B017C01F8940F2EB3
S11303B0FAE04F2E512C612C712CF02DA3019201E7
S11303C06CD0609366000F2EF4E68F2E912CA12C36
S11303D0B12CF02DC701B601A50194015ED0A30193
S11303E092015BD0209365000F2EF8EE4F2EF3E0C0
S11303F05F2E612C712CF02DC701B601A30192016F
S11304004CD0A501940149D0209364000F2EF0E153
S11304108F2EF7E29F2EA12CB12CF02DC701B6012F
S1130420A50194013AD0A301920137D0209363002F
S1130430C701B60120EA36E841E050E02ED0F22EA2
S1130440A50194012AD020936200F092610078946F
S1130450FF90EF90DF90CF90BF90AF909F908F90E0
S11304607F906F905F904F9008950ADF88E28A959D
S1130470F1F7A9DE88E28A95F1F78FEF81BB8FE06F
S113048087BB9FE194BB12BA88BB85BB789460E4B8
S113049072EE81E090E07CDFFACFA1E21A2EAA1B73
S11304A0BB1BFD010DC0AA1FBB1FEE1FFF1FA21720
S11304B0B307E407F50720F0A21BB30BE40BF50B1D
S11304C0661F771F881F991F1A9469F760957095A6
S11304D0809590959B01AC01BD01CF010895F894DE
S10504E0FFCF48
S9030000FC
