S017000074696D657220696E64696B61746F722E7372656307
S11300001CC02BC02AC029C028C027C029C125C0B4
S113001024C023C022C021C020C01FC01EC01DC0D8
S11300201CC01BC01AC0F1C0F2C0F4C0F6C0F8C0B6
S1130030FAC0FCC0FEC000C102C111241FBECFE53E
S1130040D4E0DEBFCDBF20E0A0E6B0E001C01D9249
S1130050A936B207E1F72ED2AAC2D2CFA59AAD989B
S11300608AE18A95F1F700C0A49AAC989AE19A952E
S1130070F1F700C0A598AD9A8AE18A95F1F700C01E
S1130080A498AC9A9AE19A95F1F700C09C9902C0A1
S113009082E001C080E09D9B8F5F9AE19A95F1F721
S11300A000C09AE19A95F1F700C09AE19A95F1F7A8
S11300B000C09AE19A95F1F700C00895A49AAC980B
S11300C08AE18A95F1F700C0A59AAD988AE18A95EC
S11300D0F1F700C00895A498AC9A8AE18A95F1F7E3
S11300E000C0A598AD9A8AE18A95F1F700C0A49A58
S11300F0AC988AE18A95F1F700C0A59AAD988AE197
S11301008A95F1F700C00895A498AC9AA598AD9A81
S1130110A5DF089598E088231CF0A49AAC9802C047
S1130120A498AC9A2AE12A95F1F700C0A598AD9A53
S11301302AE12A95F1F700C0A59AAD98880F91504D
S113014051F7A498AC9A8AE18A95F1F700C0A59872
S1130150AD9A2AE12A95F1F700C083B3A59AAD9828
S1130160829581700895282FA498AC9A98E080E035
S1130170880FA598AD9A3AE13A95F1F700C09C9999
S11301808160A59AAD983AE13A95F1F700C0915093
S113019079F7211103C0A49AAC9802C0A498AC9A30
S11301A09AE19A95F1F700C0A598AD9A3AE13A958B
S11301B0F1F700C0A59AAD989AE19A95F1F700C0BD
S11301C0A498AC9A0895CF939FDF78DF80EDA2DFE7
S11301D08EE0A0DF80DF81ED9DDF81E0C4DFC82FEA
S11301E03DDF6CDF80ED96DF8EE094DF74DF8C2FD3
S11301F08F7790DF33DFCF91089590E08A309105B7
S113020000F5FC01ED5EFF4F099412BA089581E0F8
S113021082BB089582E082BB089583E082BB089587
S113022084E082BB089585E082BB089586E082BBAA
S1130230089587E082BB089588E082BB089589E031
S113024082BB08958EB588608EBD89B7806189BFF1
S11302508AE78BBD82E18ABD8EB581608EBD08952B
S11302601F920F920FB60F9211242F933F934F9327
S11302705F936F937F938F939F93AF93BF93EF930A
S1130280FF9380916000811109C0A898A998AA9849
S1130290AB98C098C19A80916600AFDF80916000EE
S11302A0813049F4A898A998AA98AB98C198C09AA3
S11302B080916500A2DF80916000823049F4A898A3
S11302C0A998AA98C098C198AB9A8091640095DFC8
S11302D080916000833049F4A898A998AB98C0989D
S11302E0C198AA9A8091630088DF8091600084306D
S11302F049F4A898AA98AB98C098C198A99A8091F3
S113030062007BDF80916000853049F4A998AA9847
S1130310AB98C098C198A89A809161006EDF8091D3
S113032060008F5F863018F48093600002C01092E2
S11303306000FF91EF91BF91AF919F918F917F9159
S11303406F915F914F913F912F910F900FBE0F903E
S11303501F901895AC01F8949C01ADECBCECF9D05D
S11303609695879596958795969587959C01220FE6
S1130370331F880F991F880F991F880F991F820FA9
S1130380931F9A01281B390B209366009A01369516
S1130390279536952795ABE7B4E1DBD096958795FD
S11303A064E6689F9001699F300D1124CA01821B85
S11303B0930B9C01ADECBCECCCD0969587959695AF
S11303C0879596958795809365009A01369527952C
S11303D03695279536952795A5ECB0E2BAD0929537
S11303E082958F7089279F70892768EE73E0869FB6
S11303F09001879F300D969F300D1124CA01821BF6
S1130400930B9C013695279536952795ABE7B4E178
S1130410A0D096958795809364009A013295229591
S11304202F7023273F702327A7E4B3E092D0FC0169
S1130430F695E795F695E795F695E79520E137E289
S1130440E29FC001E39F900DF29F900D1124FA01E9
S1130450E81BF90B9F013695279536952795369518
S11304602795A5ECB0E275D0929582958F70892777
S11304709F708927809363009F01329522952F7086
S113048023273F702327A7E4B3E063D0969587958D
S1130490969587959695879580936200BA0180E03A
S11304A090E020EA36E841E050E037D02093610044
S11304B078940895C7DE28E22A95F1F784DE88E26D
S11304C08A95F1F78FEF81BB8FE087BB9FE194BBE7
S11304D012BA88BB85BB10926800109267007894AA
S11304E0109268001092670089E390E333DF9FEF76
S11304F029E688E1915020408040E1F700C00000E7
S113050080916700909168000196909368008093B1
S113051067008031974240F3E3CF052E97FB16F432
S113052000940FD057FD05D020D007FC02D046F42C
S113053008C050954095309521953F4F4F4F5F4FE0
S1130540089590958095709561957F4F8F4F9F4F3B
S11305500895A29FB001B39FC001A39F01D0B29F91
S1130560700D811D1124911D0895A1E21A2EAA1B5C
S1130570BB1BFD010DC0AA1FBB1FEE1FFF1FA2174F
S1130580B307E407F50720F0A21BB30BE40BF50B4C
S1130590661F771F881F991F1A9469F760957095D5
S11305A0809590959B01AC01BD01CF010895F8940D
S10505B0FFCF77
S9030000FC
