S017000074696D657220696E64696B61746F722E7372656307
S11300001CC02BC02AC029C028C027C05AC025C084
S113001024C023C022C021C020C01FC01EC01DC0D8
S11300201CC01BC01AC022C023C025C027C029C0C1
S11300302BC02DC02FC031C033C011241FBECFE54B
S1130040D4E0DEBFCDBF20E0A0E6B0E001C01D9249
S1130050A936B207E1F75DD1EBC1D2CF90E08A3087
S1130060910500F5FC01ED5EFF4F099412BA089565
S113007081E082BB089582E082BB089583E082BB65
S1130080089584E082BB089585E082BB089586E0EC
S113009082BB089587E082BB089588E082BB0895FF
S11300A089E082BB08958EB588608EBD89B7806172
S11300B089BF8FE08BBD82E48ABD8EB581608EBD21
S11300C008951F920F920FB60F9211242F933F930E
S11300D04F935F936F937F938F939F93AF93BF934C
S11300E0EF93FF9380916000811116C0A898A9989E
S11300F0AA98AB98C098C19A80916600AFDF8091AE
S11301006000811109C0A898A998AA98AB98C198D1
S1130110C09A80916500A2DF80916000813049F42B
S1130120A898A998AA98C098C198AB9A809164009D
S113013095DF80916000823049F4A898A998AB9823
S1130140C098C198AA9A8091630088DF809160006A
S1130150833049F4A898AA98AB98C098C198A99AF2
S1130160809162007BDF80916000843049F4A9981B
S1130170AA98AB98C098C198A89A809161006EDF44
S1130180809160008F5F863018F48093600002C015
S113019010926000FF91EF91BF91AF919F918F9169
S11301A07F916F915F914F913F912F910F900FBE6F
S11301B00F901F901895AC019C01ADECBCEC0AD1DA
S11301C09695879596958795969587959C01220F88
S11301D0331F880F991F880F991F880F991F820F4B
S11301E0931F9A01281B390B209366009A013695B8
S11301F0279536952795ABE7B4E1ECD0969587958E
S113020064E6689F9001699F300D1124CA01821B26
S1130210930B9C01ADECBCECDDD09695879596953F
S1130220879596958795809365009A0136952795CD
S11302303695279536952795A5ECB0E2CBD09295C7
S113024082958F7089279F70892768EE73E0869F57
S11302509001879F300D969F300D1124CA01821B97
S1130260930B9C013695279536952795ABE7B4E11A
S1130270B1D096958795809364009A013295229522
S11302802F7023273F702327A7E4B3E0A3D0FC01FA
S1130290F695E795F695E795F695E79520E137E22B
S11302A0E29FC001E39F900DF29F900D1124FA018B
S11302B0E81BF90B9F0136952795369527953695BA
S11302C02795A5ECB0E286D0929582958F70892708
S11302D09F708927809363009F01329522952F7028
S11302E023273F702327A7E4B3E074D0969587951E
S11302F0969587959695879580936200BA0180E0DC
S113030090E020EA36E841E050E048D020936100D4
S11303100895C9DE8FEF81BB8FE087BB9FE994BB53
S113032012BA9FE498BB85BB1092680010926700D4
S11303307894109268001092670080E0C0E010E0AA
S1130340D1E011C0B6990AC0C53010F4CF5F0BC01C
S113035010926800109267008D2F05C0CC2311F015
S1130360C15001C08D2F882369F38091670090915B
S1130370680021DF2FE38DE093E02150804090401E
S1130380E1F700C000008091670090916800019639
S11303909093680080936700812FE5CF052E97FB2B
S11303A016F400940FD057FD05D020D007FC02D0DE
S11303B046F408C050954095309521953F4F4F4FD6
S11303C05F4F089590958095709561957F4F8F4FFD
S11303D09F4F0895A29FB001B39FC001A39F01D076
S11303E0B29F700D811D1124911D0895A1E21A2E52
S11303F0AA1BBB1BFD010DC0AA1FBB1FEE1FFF1FC5
S1130400A217B307E407F50720F0A21BB30BE40B14
S1130410F50B661F771F881F991F1A9469F760955B
S11304207095809590959B01AC01BD01CF01089515
S1070430F894FFCF6A
S9030000FC
