:100000001CC02BC02AC029C028C027C05AC025C088
:1000100024C023C022C021C020C01FC01EC01DC0DC
:100020001CC01BC01AC022C023C025C027C029C0C5
:100030002BC02DC02FC031C033C011241FBECFE54F
:10004000D4E0DEBFCDBF20E0A0E6B0E001C01D924D
:10005000A736B207E1F7FDD048C1D2CF90E08A3091
:10006000910500F5FC01ED5EFF4F099412BA089569
:1000700081E082BB089582E082BB089583E082BB69
:10008000089584E082BB089585E082BB089586E0F0
:1000900082BB089587E082BB089588E082BB089503
:1000A00089E082BB08958EB588608EBD89B7806176
:1000B00089BF8FE08BBD82E48ABD8EB581608EBD25
:1000C00008951F920F920FB60F9211242F933F9312
:1000D0004F935F936F937F938F939F93AF93BF9350
:1000E000EF93FF9380916000811107C0C098C19881
:1000F000C298C49A80916400B1DF80916000813021
:1001000039F4C098C198C498C29A80916300A6DF60
:1001100080916000823039F4C098C298C498C19A26
:10012000809162009BDF80916000833039F4C19838
:10013000C298C498C09A8091610090DF809160005D
:100140008F5F853018F48093600002C010926000C9
:10015000FF91EF91BF91AF919F918F917F916F919F
:100160005F914F913F912F910F900FBE0F901F9075
:100170001895AC019C01ADECBCECABD09695879585
:1001800096958795969587959C01220F331F880F2A
:10019000991F880F991F880F991F820F931F9A012B
:1001A000281B390B209364009A01369527953695C4
:1001B0002795ABE7B4E18DD09695879564E6689F67
:1001C0009001699F300D1124CA01821B930B9C0181
:1001D000ADECBCEC7ED096958795969587959695D7
:1001E000879580936300FA01F695E795F695E79574
:1001F000F695E7959F01A5ECB0E26BD092958295BC
:100200008F7089279F70892768EE73E0869F900121
:10021000879F300D969F300D1124CA01821B930BCE
:100220009C013695279536952795ABE7B4E151D0DB
:1002300096958795809362009F01A5ECB0E249D026
:10024000929582958F7089279F708927809361008E
:10025000089529DF8FEF81BB8FE087BB8FE984BBD7
:1002600012BA8FE488BB8FE185BB109266001092B2
:1002700065007894C0E01092660010926500B6990F
:1002800009C0C53010F4CF5FFACF1092660010920B
:10029000650004C0CC2311F0C150F1CF80916500FE
:1002A0009091660066DF2FE38DE093E0215080405F
:1002B0009040E1F700C000008091650090916600D9
:1002C0000196909366008093650080319742B8F262
:1002D000D2CFA29FB001B39FC001A39F01D0B29F14
:0E02E000700D811D1124911D0895F894FFCF1B
:00000001FF
